:1000000084B1806284B98AB1806E8AB98BB18F71F4
:100010008BB982E091E00E94683C30E02D9B0EC0DD
:1000200085B18F7D85B93F5F2FEF43ED80E3215090
:1000300040408040E1F700C000000CC085B1806204
:1000400085B99FEF23EC49E0915020404040E1F713
:1000500000C000008BB1282F2F7140E2349FC001F7
:080060001124822B8BB9DACFC9
:107800000C94343C0C94513C0C94513C0C94513CE1
:107810000C94513C0C94513C0C94513C0C94513CB4
:107820000C94513C0C94513C0C94513C0C94513CA4
:107830000C94513C0C94513C0C94513C0C94513C94
:107840000C94513C0C94513C0C947E3C0C94513C57
:107850000C94513C0C94513C0C94513C0C94513C74
:107860000C94513C0C94513C11241FBECFEFD8E036
:10787000DEBFCDBF11E0A0E0B1E0E8E2FAE702C070
:1078800005900D92A637B107D9F721E0A6E7B1E040
:1078900001C01D92A73FB207E1F70E94CC3C0C94B7
:1078A000123D0C94003C1092C50083E38093C40009
:1078B000E1ECF0E080818861808380818068808352
:1078C00008959091C00095FFFCCF8093C600089565
:1078D0000F931F93CF93DF938C01C0E0D0E003C0E0
:1078E00021960E94613CF801EC0FFD1F80818111FF
:1078F000F7CFDF91CF911F910F9108951F920F92B3
:107900000FB60F9211242F933F934F935F936F9372
:107910007F938F939F93AF93BF93EF93FF93E091E8
:107920007601F0E08091C600E958FE4F8083809197
:10793000760190E001968F779078992324F401974F
:1079400080689F6F0196809376018091010181503C
:107950008093010180910001882369F080910101E9
:10796000853020F080910101811105C083E10E94E2
:10797000613C10920001FF91EF91BF91AF919F91F7
:107980008F917F916F915F914F913F912F910F90C8
:107990000FBE0F901F901895F89485B7982F91609F
:1079A00095BF826085BF78940E94533C84B1806209
:1079B00084B984B1817084B985B1816085B98CE165
:1079C00091E00E94683C80E591E00E94683C189B31
:1079D00019C086E591E00E94683C1BC08F5F2D9B1B
:1079E00004C095B19F7D95B903C095B1906295B9DA
:1079F0002FEF33ED90E3215030409040E1F700C08D
:107A0000000001C080E0863048F383E691E00E94E8
:107A1000683CF89485B7982F916095BF8D7F85BF9E
:087A20000E940000F894FFCF62
:107A2800018048656C6C6F2066726F6D20617070A4
:107A38006C69636174696F6E210D0A000D0A2D2D42
:107A48002D2D2D2D2D2D2D2D2D2D2D2D2D2D2D2D5E
:107A58002D2D2D2D2D2D2D2D2D2D2D2D2D2D2D2D4E
:107A68002D2D2D2D2D2D2D2D2D2D2D2D2D0D0A00AE
:107A780048656C6C6F0020616E6420676F6F64628C
:107A880079652066726F6D20626F6F746C6F6164C8
:067A98006572210D0A00D9
:040000030000780081
:00000001FF
